{
  "contractName": "gtechToken",
  "abi": [
    {
      "constant": true,
      "inputs": [],
      "name": "totalSupply",
      "outputs": [
        {
          "name": "",
          "type": "uint256"
        }
      ],
      "payable": false,
      "stateMutability": "view",
      "type": "function"
    },
    {
      "inputs": [],
      "payable": false,
      "stateMutability": "nonpayable",
      "type": "constructor"
    }
  ],
  "bytecode": "0x608060405234801561001057600080fd5b50620f4240600081905550609e806100296000396000f300608060405260043610603f576000357c0100000000000000000000000000000000000000000000000000000000900463ffffffff16806318160ddd146044575b600080fd5b348015604f57600080fd5b506056606c565b6040518082815260200191505060405180910390f35b600054815600a165627a7a72305820cd06fc7df77c90be6b9ea83b951c1cd59041116e5a3706bf703bc504648e6f7f0029",
  "source": "// SPDX-License-Identifier: MIT\r\npragma solidity ^0.4.2; // when I switch ^0.4.2 then don't show any problem\r\n\r\ncontract gtechToken{\r\n    //constructor\r\n    //Set the total number of token\r\n    //Read the total number of token\r\n    // In solidity we can create a constructor by defining a function that has the same as our contract (gtechToken)\r\n    uint256 public totalSupply;//store the varible and select data type & this is an unsigned interger256\r\n    function gtechToken() public{\r\n        totalSupply = 1000000; // here this variable represent state variable in solidity\r\n        \r\n    }\r\n}",
  "sourcePath": "E:\\CODING✔✔✔✔✔\\ERC20 TOKEN\\token_sale\\contracts\\gtechToken.sol",
  "compiler": {
    "name": "solc",
    "version": "0.4.26+commit.4563c3fc.Emscripten.clang"
  },
  "schemaVersion": "3.4.7",
  "updatedAt": "2022-06-20T16:48:11.657Z",
  "networkType": "ethereum",
  "devdoc": {
    "methods": {}
  },
  "userdoc": {
    "methods": {}
  }
}